{"abi":[{"type":"constructor","inputs":[{"name":"testType","type":"uint8","internalType":"enum PrecompileTarget.TestType"},{"name":"precompile","type":"address","internalType":"address"}],"stateMutability":"payable"},{"type":"receive","stateMutability":"payable"},{"type":"function","name":"checkAddress","inputs":[{"name":"target","type":"address","internalType":"address"}],"outputs":[],"stateMutability":"nonpayable"},{"type":"function","name":"delegateForwarder","inputs":[],"outputs":[{"name":"","type":"address","internalType":"address"}],"stateMutability":"view"},{"type":"function","name":"testExtChecksWithCallCode","inputs":[],"outputs":[],"stateMutability":"payable"},{"type":"function","name":"testExtChecksWithCallNoValue","inputs":[],"outputs":[],"stateMutability":"nonpayable"},{"type":"function","name":"testExtChecksWithCallWithValue","inputs":[],"outputs":[],"stateMutability":"payable"},{"type":"function","name":"testExtChecksWithDelegateCall","inputs":[],"outputs":[],"stateMutability":"nonpayable"},{"type":"function","name":"testExtChecksWithStaticCall","inputs":[],"outputs":[],"stateMutability":"nonpayable"},{"type":"function","name":"testNestedDelegateCallNoValue","inputs":[],"outputs":[],"stateMutability":"nonpayable"},{"type":"function","name":"testNestedDelegateCallWithValue","inputs":[],"outputs":[],"stateMutability":"payable"},{"type":"function","name":"testOnlyExtChecks","inputs":[],"outputs":[],"stateMutability":"nonpayable"},{"type":"function","name":"testSelfDestructToPrecompile","inputs":[{"name":"precompileAddr","type":"address","internalType":"address payable"}],"outputs":[],"stateMutability":"nonpayable"},{"type":"event","name":"BalanceChecked","inputs":[{"name":"addr","type":"address","indexed":true,"internalType":"address"},{"name":"balance","type":"uint256","indexed":false,"internalType":"uint256"}],"anonymous":false},{"type":"event","name":"CallResult","inputs":[{"name":"addr","type":"address","indexed":true,"internalType":"address"},{"name":"success","type":"bool","indexed":false,"internalType":"bool"}],"anonymous":false},{"type":"event","name":"CodeHashChecked","inputs":[{"name":"addr","type":"address","indexed":true,"internalType":"address"},{"name":"codeHash","type":"bytes32","indexed":false,"internalType":"bytes32"}],"anonymous":false},{"type":"event","name":"CodeSizeChecked","inputs":[{"name":"addr","type":"address","indexed":true,"internalType":"address"},{"name":"size","type":"uint256","indexed":false,"internalType":"uint256"}],"anonymous":false},{"type":"event","name":"SelfDestructed","inputs":[{"name":"recipient","type":"address","indexed":true,"internalType":"address"}],"anonymous":false}],"bytecode":{"object":"0x60806040526040611c688038038091610017826101b6565b6080391261019e57608051600a81101561019e5760a0516001600160a01b038116919082900361019e5760405160738082016001600160401b03811183821017610199578291611b75833903905ff08015610194575f80546001600160a01b0319166001600160a01b039092169190911790556100938161021a565b806100b15750506100a2610c2c565b604051610e5b9081610d1a8239f35b6100ba8161021a565b600181036100d15750506100cc610b1b565b6100a2565b6100da8161021a565b600281036100ec5750506100cc61039c565b6100f58161021a565b600381036101075750506100cc610a3d565b6101108161021a565b600481036101225750506100cc61092d565b61012b8161021a565b6005810361013d5750506100cc61024c565b6101468161021a565b600681036101585750506100cc6107de565b6101618161021a565b600781036101735750506100cc6107de565b61017c8161021a565b6008810361018a5750610238565b6100cc915061021a565b61020f565b6101a2565b5f80fd5b634e487b7160e01b5f52604160045260245ffd5b6080601f91909101601f19168101906001600160401b0382119082101761019957604052565b601f909101601f19168101906001600160401b0382119082101761019957604052565b9061020d60405192836101dc565b565b6040513d5f823e3d90fd5b600a111561022457565b634e487b7160e01b5f52602160045260245ffd5b61024a6001600160a01b038216610703565bff5b6014470461025b6102606101ff565b5f81526001602082015290600260408301526003606083015260046080830152600560a0830152600660c0830152600760e083015260086101008301526009610120830152600a610140830152600b610160830152600c610180830152600d6101a0830152600e6101c0830152600f6101e0830152601061020083015260116102208301526101006102408301525f5b601381106102f857505050565b8061039661031861030b6001948761078a565b516001600160a01b031690565b61032181610703565b6040518131815260a085901b85900382169081905f516020611c485f395f51905f5290602090a2805f516020611c085f395f51905f526103745f8080808c895af260405190151581529081906020820190565b0390a2604051823181525f516020611c485f395f51905f5290602090a2610703565b016102eb565b601447046103ab6102606101ff565b5f81526001602082015290600260408301526003606083015260046080830152600560a0830152600660c0830152600760e083015260086101008301526009610120830152600a610140830152600b610160830152600c610180830152600d6101a0830152600e6101c0830152600f6101e0830152601061020083015260116102208301526101006102408301525f5b6013811061044857505050565b806104c061045b61030b6001948761078a565b61046481610703565b6040518131815260a085901b85900382169081905f516020611c485f395f51905f5290602090a2805f516020611c085f395f51905f526103745f8080808c895af16104ad6107af565b5060405190151581529081906020820190565b0161043b565b6001600160401b03811161019957601f01601f191660200190565b6101003b6101005f516020611be85f395f51905f526020604051848152a25f610509826104c6565b61051660405191826101dc565b8281526020610524846104c6565b910190601f19013682376101003c6101005f516020611c285f395f51905f526020823f604051908152a26101005f516020611c485f395f51905f5260208231604051908152a2565b60ff3b60ff5f516020611be85f395f51905f526020604051848152a25f610592826104c6565b61059f60405191826101dc565b82815260206105ad846104c6565b910190601f190136823760ff3c60ff5f516020611c285f395f51905f526020823f604051908152a260ff5f516020611c485f395f51905f5260208231604051908152a2565b6101013b6101015f516020611be85f395f51905f526020604051848152a25f61061a826104c6565b61062760405191826101dc565b8281526020610635846104c6565b910190601f19013682376101013c6101015f516020611c285f395f51905f526020823f604051908152a26101015f516020611c485f395f51905f5260208231604051908152a2565b60123b60125f516020611be85f395f51905f526020604051848152a25f6106a3826104c6565b6106b060405191826101dc565b82815260206106be846104c6565b910190601f190136823760123c60125f516020611c285f395f51905f526020823f604051908152a260125f516020611c485f395f51905f5260208231604051908152a2565b5f516020611c485f395f51905f526020823b9260018060a01b03811693845f516020611be85f395f51905f5284604051848152a25f610741826104c6565b61074e60405191826101dc565b8281528461075b846104c6565b910190601f1901368237833c835f516020611c285f395f51905f5283833f604051908152a231604051908152a2565b90601381101561079b5760051b0190565b634e487b7160e01b5f52603260045260245ffd5b3d156107d9573d906107c0826104c6565b916107ce60405193846101dc565b82523d5f602084013e565b606090565b6107e96102606101ff565b5f815260016020820152600260408201526003606082015260046080820152600560a0820152600660c0820152600760e082015260086101008201526009610120820152600a610140820152600b610160820152600c610180820152600d6101a0820152600e6101c0820152600f6101e0820152601061020082015260116102208201526101006102408201525f5b60138110610884575050565b8061092761089761030b6001948661078a565b6108a081610703565b6040518131815260a085901b85900382169081905f516020611c485f395f51905f5290602090a2805f516020611c085f395f51905f526103745f806040516020810161090f826109018b8460149160018060601b03199060601b1681520190565b03601f1981018452836101dc565b82546001600160a01b03169151915af46104ad6107af565b01610878565b6109386102606101ff565b5f815260016020820152600260408201526003606082015260046080820152600560a0820152600660c0820152600760e082015260086101008201526009610120820152600a610140820152600b610160820152600c610180820152600d6101a0820152600e6101c0820152600f6101e0820152601061020082015260116102208201526101006102408201525f5b601381106109d3575050565b80610a376109e661030b6001948661078a565b6109ef81610703565b6040518131815260a085901b85900382169081905f516020611c485f395f51905f5290602090a2805f516020611c085f395f51905f526103745f808080885af46104ad6107af565b016109c7565b610a486102606101ff565b5f815260016020820152600260408201526003606082015260046080820152600560a0820152600660c0820152600760e082015260086101008201526009610120820152600a610140820152600b610160820152600c610180820152600d6101a0820152600e6101c0820152600f6101e0820152601061020082015260116102208201526101006102408201525f5b60138110610ae3575050565b80610b15610af661030b6001948661078a565b610aff81610703565b5f808080845afa50610b0f6107af565b50610703565b01610ad7565b610b266102606101ff565b5f815260016020820152600260408201526003606082015260046080820152600560a0820152600660c0820152600760e082015260086101008201526009610120820152600a610140820152600b610160820152600c610180820152600d6101a0820152600e6101c0820152600f6101e0820152601061020082015260116102208201526101006102408201525f5b60138110610bc1575050565b80610c26610bd461030b6001948661078a565b610bdd81610703565b6040518131815260a085901b85900382169081905f516020611c485f395f51905f5290602090a2805f516020611c085f395f51905f526103745f80808080895af16104ad6107af565b01610bb5565b5f3b5f5f516020611be85f395f51905f526020604051848152a25f610c50826104c6565b610c5d60405191826101dc565b8281526020610c6b846104c6565b910190601f1901368237813c5f5f516020611c285f395f51905f526020823f604051908152a25f5f516020611c485f395f51905f5260208231604051908152a260015b6001600160a01b03811660118111610cf757610cc990610703565b6001600160a01b03908116908114610ce357600101610cae565b634e487b7160e01b5f52601160045260245ffd5b5050610d016104e1565b610d0961056c565b610d116105f2565b61020d61067d56fe6080604052600436101561001a575b3615610018575f80fd5b005b5f3560e01c80630ddcfe8e146100c95780630e8725f1146100c45780632e13d81d146100bf5780633b40089d146100ba57806354414039146100b557806358b84a62146100b057806387fa4c41146100ab578063a3d3f0c4146100a6578063adc822e3146100a1578063b795a9f01461009c5763ba989ff40361000e57610898565b6107ac565b61068e565b610570565b6104ec565b6104bb565b6103f3565b6103cc565b610269565b610108565b6100e3565b6001600160a01b038116036100df57565b5f80fd5b346100df5760203660031901126100df57610018600435610103816100ce565b610cca565b346100df575f3660031901126100df576101236102606109fb565b5f815260016020820152600260408201526003606082015260046080820152600560a0820152600660c0820152600760e082015260086101008201526009610120820152600a610140820152600b610160820152600c610180820152600d6101a0820152600e6101c0820152600f6101e0820152601061020082015260116102208201526101006102408201525f5b601381106101bc57005b806102636101dc6101cf60019486610d51565b516001600160a01b031690565b6101e581610cca565b6040518131815260a085901b85900382169081905f516020610e065f395f51905f5290602090a2805f516020610dc65f395f51905f526102415f80808080895af161022e610d76565b5060405190151581529081906020820190565b0390a2604051823181525f516020610e065f395f51905f5290602090a2610cca565b016101b2565b346100df575f3660031901126100df576102846102606109fb565b5f815260016020820152600260408201526003606082015260046080820152600560a0820152600660c0820152600760e082015260086101008201526009610120820152600a610140820152600b610160820152600c610180820152600d6101a0820152600e6101c0820152600f6101e0820152601061020082015260116102208201526101006102408201525f5b6013811061031d57005b806103c66103306101cf60019486610d51565b61033981610cca565b6040518131815260a085901b85900382169081905f516020610e065f395f51905f5290602090a2805f516020610dc65f395f51905f526102415f80604051602081016103ae826103a08b846014916bffffffffffffffffffffffff199060601b1681520190565b03601f1981018452836109d4565b82546001600160a01b03169151915af461022e610d76565b01610313565b346100df575f3660031901126100df575f546040516001600160a01b039091168152602090f35b5f3660031901126100df576104096102606109fb565b5f815260016020820152600260408201526003606082015260046080820152600560a0820152600660c0820152600760e082015260086101008201526009610120820152600a610140820152600b610160820152600c610180820152600d6101a0820152600e6101c0820152600f6101e0820152601061020082015260116102208201526101006102408201525f5b601381106104a257005b806104b56103306101cf60019486610d51565b01610498565b346100df5760203660031901126100df576004356104d8816100ce565b6104ea6001600160a01b038216610cca565bff5b346100df575f3660031901126100df57610504610a27565b60015b6001600160a01b038116601181116105505761052290610cca565b6001600160a01b0390811690811461053c57600101610507565b634e487b7160e01b5f52601160045260245ffd5b610558610aa8565b610560610b33565b610568610bb9565b610018610c44565b5f3660031901126100df576014470461058a6102606109fb565b5f815260016020820152600260408201526003606082015260046080820152600560a0820152600660c0820152600760e082015260086101008201526009610120820152600a610140820152600b610160820152600c610180820152600d6101a0820152600e6101c0820152600f6101e0820152601061020082015260116102208201526101006102408201525f5b6013811061062357005b806106886106366101cf60019486610d51565b61063f81610cca565b6040518131815260a085901b85900382169081905f516020610e065f395f51905f5290602090a2805f516020610dc65f395f51905f526102415f8080808d895af161022e610d76565b01610619565b346100df575f3660031901126100df576106a96102606109fb565b5f815260016020820152600260408201526003606082015260046080820152600560a0820152600660c0820152600760e082015260086101008201526009610120820152600a610140820152600b610160820152600c610180820152600d6101a0820152600e6101c0820152600f6101e0820152601061020082015260116102208201526101006102408201525f5b6013811061074257005b806107a66107556101cf60019486610d51565b61075e81610cca565b6040518131815260a085901b85900382169081905f516020610e065f395f51905f5290602090a2805f516020610dc65f395f51905f526102415f808080885af461022e610d76565b01610738565b346100df575f3660031901126100df576107c76102606109fb565b5f815260016020820152600260408201526003606082015260046080820152600560a0820152600660c0820152600760e082015260086101008201526009610120820152600a610140820152600b610160820152600c610180820152600d6101a0820152600e6101c0820152600f6101e0820152601061020082015260116102208201526101006102408201525f5b6013811061086057005b806108926108736101cf60019486610d51565b61087c81610cca565b5f808080845afa5061088c610d76565b50610cca565b01610856565b5f3660031901126100df57601447046108b26102606109fb565b5f815260016020820152600260408201526003606082015260046080820152600560a0820152600660c0820152600760e082015260086101008201526009610120820152600a610140820152600b610160820152600c610180820152600d6101a0820152600e6101c0820152600f6101e0820152601061020082015260116102208201526101006102408201525f5b6013811061094b57005b806109ba61095e6101cf60019486610d51565b61096781610cca565b6040518131815260a085901b85900382169081905f516020610e065f395f51905f5290602090a2805f516020610dc65f395f51905f526102415f8080808d895af260405190151581529081906020820190565b01610941565b634e487b7160e01b5f52604160045260245ffd5b90601f8019910116810190811067ffffffffffffffff8211176109f657604052565b6109c0565b90610a0960405192836109d4565b565b67ffffffffffffffff81116109f657601f01601f191660200190565b5f3b5f5f516020610da65f395f51905f526020604051848152a25f610a4b82610a0b565b610a5860405191826109d4565b8281526020610a6684610a0b565b910190601f1901368237813c5f5f516020610de65f395f51905f526020823f604051908152a25f5f516020610e065f395f51905f5260208231604051908152a2565b6101003b6101005f516020610da65f395f51905f526020604051848152a25f610ad082610a0b565b610add60405191826109d4565b8281526020610aeb84610a0b565b910190601f19013682376101003c6101005f516020610de65f395f51905f526020823f604051908152a26101005f516020610e065f395f51905f5260208231604051908152a2565b60ff3b60ff5f516020610da65f395f51905f526020604051848152a25f610b5982610a0b565b610b6660405191826109d4565b8281526020610b7484610a0b565b910190601f190136823760ff3c60ff5f516020610de65f395f51905f526020823f604051908152a260ff5f516020610e065f395f51905f5260208231604051908152a2565b6101013b6101015f516020610da65f395f51905f526020604051848152a25f610be182610a0b565b610bee60405191826109d4565b8281526020610bfc84610a0b565b910190601f19013682376101013c6101015f516020610de65f395f51905f526020823f604051908152a26101015f516020610e065f395f51905f5260208231604051908152a2565b60123b60125f516020610da65f395f51905f526020604051848152a25f610c6a82610a0b565b610c7760405191826109d4565b8281526020610c8584610a0b565b910190601f190136823760123c60125f516020610de65f395f51905f526020823f604051908152a260125f516020610e065f395f51905f5260208231604051908152a2565b5f516020610e065f395f51905f526020823b9260018060a01b03811693845f516020610da65f395f51905f5284604051848152a25f610d0882610a0b565b610d1560405191826109d4565b82815284610d2284610a0b565b910190601f1901368237833c835f516020610de65f395f51905f5283833f604051908152a231604051908152a2565b906013811015610d625760051b0190565b634e487b7160e01b5f52603260045260245ffd5b3d15610da0573d90610d8782610a0b565b91610d9560405193846109d4565b82523d5f602084013e565b60609056fefd43ab582b6933dcc77866f4b4ebe359111d772f61dace763d0d89e1839d0c514af87747ea2d94d5dc443803c6d5358dcb7b8fbe8defc0a22a8c5029a5873d9b8a1d72821dd9907e0ebe70d5d138e22b53bbc330960d8c15800ba5b9de585c5f99fd1b4b1c3d2adfe8295d40a886856c6fa50e4a821d330c781d67c582bc3d99a264697066735822122082ec90c9abffcd021698552ac9103da8900e723881b23245f844e41cac4d38ac64736f6c634300081e003360808060405234601357605b908160188239f35b5f80fdfe60806040525f8036601f190180602083378180355af43d5f803e156021573d5ff35b3d5ffdfea26469706673582212209b7adaea60c1230ded4ca161feba45d590152c055ef20a1ea5e1513b5192040264736f6c634300081e0033fd43ab582b6933dcc77866f4b4ebe359111d772f61dace763d0d89e1839d0c514af87747ea2d94d5dc443803c6d5358dcb7b8fbe8defc0a22a8c5029a5873d9b8a1d72821dd9907e0ebe70d5d138e22b53bbc330960d8c15800ba5b9de585c5f99fd1b4b1c3d2adfe8295d40a886856c6fa50e4a821d330c781d67c582bc3d99","linkReferences":{}},"methodIdentifiers":{"checkAddress(address)":"0ddcfe8e","delegateForwarder()":"3b40089d","testExtChecksWithCallCode()":"ba989ff4","testExtChecksWithCallNoValue()":"0e8725f1","testExtChecksWithCallWithValue()":"a3d3f0c4","testExtChecksWithDelegateCall()":"adc822e3","testExtChecksWithStaticCall()":"b795a9f0","testNestedDelegateCallNoValue()":"2e13d81d","testNestedDelegateCallWithValue()":"54414039","testOnlyExtChecks()":"87fa4c41","testSelfDestructToPrecompile(address)":"58b84a62"},"id":0}